{
  "_format": "hh-sol-artifact-1",
  "contractName": "RiftersCollection",
  "sourceName": "contracts/RiftersCollection.sol",
  "abi": [
    {
      "inputs": [],
      "stateMutability": "nonpayable",
      "type": "constructor"
    },
    {
      "inputs": [],
      "name": "RifterCollection__QueryForNonExistentToken",
      "type": "error"
    },
    {
      "anonymous": false,
      "inputs": [
        {
          "indexed": true,
          "internalType": "address",
          "name": "owner",
          "type": "address"
        },
        {
          "indexed": true,
          "internalType": "address",
          "name": "approved",
          "type": "address"
        },
        {
          "indexed": true,
          "internalType": "uint256",
          "name": "tokenId",
          "type": "uint256"
        }
      ],
      "name": "Approval",
      "type": "event"
    },
    {
      "anonymous": false,
      "inputs": [
        {
          "indexed": true,
          "internalType": "address",
          "name": "owner",
          "type": "address"
        },
        {
          "indexed": true,
          "internalType": "address",
          "name": "operator",
          "type": "address"
        },
        {
          "indexed": false,
          "internalType": "bool",
          "name": "approved",
          "type": "bool"
        }
      ],
      "name": "ApprovalForAll",
      "type": "event"
    },
    {
      "anonymous": false,
      "inputs": [
        {
          "indexed": true,
          "internalType": "address",
          "name": "previousOwner",
          "type": "address"
        },
        {
          "indexed": true,
          "internalType": "address",
          "name": "newOwner",
          "type": "address"
        }
      ],
      "name": "OwnershipTransferred",
      "type": "event"
    },
    {
      "anonymous": false,
      "inputs": [
        {
          "indexed": false,
          "internalType": "address",
          "name": "account",
          "type": "address"
        }
      ],
      "name": "Paused",
      "type": "event"
    },
    {
      "anonymous": false,
      "inputs": [
        {
          "indexed": true,
          "internalType": "address",
          "name": "from",
          "type": "address"
        },
        {
          "indexed": true,
          "internalType": "address",
          "name": "to",
          "type": "address"
        },
        {
          "indexed": true,
          "internalType": "uint256",
          "name": "tokenId",
          "type": "uint256"
        }
      ],
      "name": "Transfer",
      "type": "event"
    },
    {
      "anonymous": false,
      "inputs": [
        {
          "indexed": false,
          "internalType": "address",
          "name": "account",
          "type": "address"
        }
      ],
      "name": "Unpaused",
      "type": "event"
    },
    {
      "inputs": [
        {
          "internalType": "address",
          "name": "to",
          "type": "address"
        },
        {
          "internalType": "uint256",
          "name": "tokenId",
          "type": "uint256"
        }
      ],
      "name": "approve",
      "outputs": [],
      "stateMutability": "nonpayable",
      "type": "function"
    },
    {
      "inputs": [
        {
          "internalType": "address",
          "name": "owner",
          "type": "address"
        }
      ],
      "name": "balanceOf",
      "outputs": [
        {
          "internalType": "uint256",
          "name": "",
          "type": "uint256"
        }
      ],
      "stateMutability": "view",
      "type": "function"
    },
    {
      "inputs": [],
      "name": "baseExtension",
      "outputs": [
        {
          "internalType": "string",
          "name": "",
          "type": "string"
        }
      ],
      "stateMutability": "view",
      "type": "function"
    },
    {
      "inputs": [],
      "name": "baseURI",
      "outputs": [
        {
          "internalType": "string",
          "name": "",
          "type": "string"
        }
      ],
      "stateMutability": "view",
      "type": "function"
    },
    {
      "inputs": [
        {
          "internalType": "address",
          "name": "from",
          "type": "address"
        },
        {
          "internalType": "address",
          "name": "to",
          "type": "address"
        },
        {
          "internalType": "uint256",
          "name": "tokenId",
          "type": "uint256"
        }
      ],
      "name": "claimNFT",
      "outputs": [],
      "stateMutability": "nonpayable",
      "type": "function"
    },
    {
      "inputs": [
        {
          "internalType": "uint256",
          "name": "tokenId",
          "type": "uint256"
        }
      ],
      "name": "getApproved",
      "outputs": [
        {
          "internalType": "address",
          "name": "",
          "type": "address"
        }
      ],
      "stateMutability": "view",
      "type": "function"
    },
    {
      "inputs": [
        {
          "internalType": "address",
          "name": "owner",
          "type": "address"
        },
        {
          "internalType": "address",
          "name": "operator",
          "type": "address"
        }
      ],
      "name": "isApprovedForAll",
      "outputs": [
        {
          "internalType": "bool",
          "name": "",
          "type": "bool"
        }
      ],
      "stateMutability": "view",
      "type": "function"
    },
    {
      "inputs": [],
      "name": "name",
      "outputs": [
        {
          "internalType": "string",
          "name": "",
          "type": "string"
        }
      ],
      "stateMutability": "view",
      "type": "function"
    },
    {
      "inputs": [],
      "name": "owner",
      "outputs": [
        {
          "internalType": "address",
          "name": "",
          "type": "address"
        }
      ],
      "stateMutability": "view",
      "type": "function"
    },
    {
      "inputs": [
        {
          "internalType": "uint256",
          "name": "tokenId",
          "type": "uint256"
        }
      ],
      "name": "ownerOf",
      "outputs": [
        {
          "internalType": "address",
          "name": "",
          "type": "address"
        }
      ],
      "stateMutability": "view",
      "type": "function"
    },
    {
      "inputs": [],
      "name": "pause",
      "outputs": [],
      "stateMutability": "nonpayable",
      "type": "function"
    },
    {
      "inputs": [],
      "name": "paused",
      "outputs": [
        {
          "internalType": "bool",
          "name": "",
          "type": "bool"
        }
      ],
      "stateMutability": "view",
      "type": "function"
    },
    {
      "inputs": [],
      "name": "renounceOwnership",
      "outputs": [],
      "stateMutability": "nonpayable",
      "type": "function"
    },
    {
      "inputs": [
        {
          "internalType": "address",
          "name": "to",
          "type": "address"
        },
        {
          "internalType": "uint256",
          "name": "nft",
          "type": "uint256"
        }
      ],
      "name": "safeMint",
      "outputs": [],
      "stateMutability": "nonpayable",
      "type": "function"
    },
    {
      "inputs": [
        {
          "internalType": "address",
          "name": "from",
          "type": "address"
        },
        {
          "internalType": "address",
          "name": "to",
          "type": "address"
        },
        {
          "internalType": "uint256",
          "name": "tokenId",
          "type": "uint256"
        }
      ],
      "name": "safeTransferFrom",
      "outputs": [],
      "stateMutability": "nonpayable",
      "type": "function"
    },
    {
      "inputs": [
        {
          "internalType": "address",
          "name": "from",
          "type": "address"
        },
        {
          "internalType": "address",
          "name": "to",
          "type": "address"
        },
        {
          "internalType": "uint256",
          "name": "tokenId",
          "type": "uint256"
        },
        {
          "internalType": "bytes",
          "name": "data",
          "type": "bytes"
        }
      ],
      "name": "safeTransferFrom",
      "outputs": [],
      "stateMutability": "nonpayable",
      "type": "function"
    },
    {
      "inputs": [
        {
          "internalType": "address",
          "name": "operator",
          "type": "address"
        },
        {
          "internalType": "bool",
          "name": "approved",
          "type": "bool"
        }
      ],
      "name": "setApprovalForAll",
      "outputs": [],
      "stateMutability": "nonpayable",
      "type": "function"
    },
    {
      "inputs": [
        {
          "internalType": "bytes4",
          "name": "interfaceId",
          "type": "bytes4"
        }
      ],
      "name": "supportsInterface",
      "outputs": [
        {
          "internalType": "bool",
          "name": "",
          "type": "bool"
        }
      ],
      "stateMutability": "view",
      "type": "function"
    },
    {
      "inputs": [],
      "name": "symbol",
      "outputs": [
        {
          "internalType": "string",
          "name": "",
          "type": "string"
        }
      ],
      "stateMutability": "view",
      "type": "function"
    },
    {
      "inputs": [
        {
          "internalType": "uint256",
          "name": "index",
          "type": "uint256"
        }
      ],
      "name": "tokenByIndex",
      "outputs": [
        {
          "internalType": "uint256",
          "name": "",
          "type": "uint256"
        }
      ],
      "stateMutability": "view",
      "type": "function"
    },
    {
      "inputs": [
        {
          "internalType": "address",
          "name": "owner",
          "type": "address"
        },
        {
          "internalType": "uint256",
          "name": "index",
          "type": "uint256"
        }
      ],
      "name": "tokenOfOwnerByIndex",
      "outputs": [
        {
          "internalType": "uint256",
          "name": "",
          "type": "uint256"
        }
      ],
      "stateMutability": "view",
      "type": "function"
    },
    {
      "inputs": [
        {
          "internalType": "uint256",
          "name": "tokenId",
          "type": "uint256"
        }
      ],
      "name": "tokenURI",
      "outputs": [
        {
          "internalType": "string",
          "name": "",
          "type": "string"
        }
      ],
      "stateMutability": "view",
      "type": "function"
    },
    {
      "inputs": [],
      "name": "totalSupply",
      "outputs": [
        {
          "internalType": "uint256",
          "name": "",
          "type": "uint256"
        }
      ],
      "stateMutability": "view",
      "type": "function"
    },
    {
      "inputs": [
        {
          "internalType": "address",
          "name": "from",
          "type": "address"
        },
        {
          "internalType": "address",
          "name": "to",
          "type": "address"
        },
        {
          "internalType": "uint256",
          "name": "tokenId",
          "type": "uint256"
        }
      ],
      "name": "transferFrom",
      "outputs": [],
      "stateMutability": "nonpayable",
      "type": "function"
    },
    {
      "inputs": [
        {
          "internalType": "address",
          "name": "newOwner",
          "type": "address"
        }
      ],
      "name": "transferOwnership",
      "outputs": [],
      "stateMutability": "nonpayable",
      "type": "function"
    },
    {
      "inputs": [],
      "name": "unpause",
      "outputs": [],
      "stateMutability": "nonpayable",
      "type": "function"
    }
  ],
  "bytecode": "0x60806040523480156200001157600080fd5b50604051806040016040528060118152602001702934b33a32b939a1b7b63632b1ba34b7b760791b81525060405180604001604052806002815260200161524360f01b815250816000908162000068919062000b08565b50600162000077828262000b08565b5050600a805460ff19169055506200008f33620000dd565b6200009c33600562000137565b600d80546001600160a01b031916331790556040805160808101909152605180825262002ecf6020830139600c90620000d6908262000b08565b5062000d0a565b600a80546001600160a01b03838116610100818102610100600160a81b031985161790945560405193909204169182907f8be0079c531659141344cd1fd0a4f28419497f9722a3daafe3b4186f6b6457e090600090a35050565b62000141620001a6565b60005b81811015620001a15762000164600b6200020e60201b62000c011760201c565b60006200017d600b6200021760201b62000c0a1760201c565b90506200018b84826200021b565b5080620001988162000bea565b91505062000144565b505050565b600a546001600160a01b036101009091041633146200020c5760405162461bcd60e51b815260206004820181905260248201527f4f776e61626c653a2063616c6c6572206973206e6f7420746865206f776e657260448201526064015b60405180910390fd5b565b80546001019055565b5490565b6200023d8282604051806020016040528060008152506200024160201b60201c565b5050565b6200024d8383620002b4565b6200025c600084848462000455565b620001a15760405162461bcd60e51b8152602060048201526032602482015260008051602062002eaf83398151915260448201527131b2b4bb32b91034b6b83632b6b2b73a32b960711b606482015260840162000203565b6001600160a01b0382166200030c5760405162461bcd60e51b815260206004820181905260248201527f4552433732313a206d696e7420746f20746865207a65726f2061646472657373604482015260640162000203565b6000818152600260205260409020546001600160a01b031615620003735760405162461bcd60e51b815260206004820152601c60248201527f4552433732313a20746f6b656e20616c7265616479206d696e74656400000000604482015260640162000203565b62000383600083836001620005b1565b6000818152600260205260409020546001600160a01b031615620003ea5760405162461bcd60e51b815260206004820152601c60248201527f4552433732313a20746f6b656e20616c7265616479206d696e74656400000000604482015260640162000203565b6001600160a01b038216600081815260036020908152604080832080546001019055848352600290915280822080546001600160a01b0319168417905551839291907fddf252ad1be2c89b69c2b068fc378daa952ba7f163c4a11628f55a4df523b3ef908290a45050565b600062000476846001600160a01b0316620005da60201b62000c0e1760201c565b15620005a557604051630a85bd0160e11b81526001600160a01b0385169063150b7a0290620004b090339089908890889060040162000c06565b6020604051808303816000875af1925050508015620004ee575060408051601f3d908101601f19168201909252620004eb9181019062000c79565b60015b6200058a573d8080156200051f576040519150601f19603f3d011682016040523d82523d6000602084013e62000524565b606091505b508051600003620005825760405162461bcd60e51b8152602060048201526032602482015260008051602062002eaf83398151915260448201527131b2b4bb32b91034b6b83632b6b2b73a32b960711b606482015260840162000203565b805181602001fd5b6001600160e01b031916630a85bd0160e11b149050620005a9565b5060015b949350505050565b620005bb620005e9565b620005d4848484846200063160201b62000c1d1760201c565b50505050565b6001600160a01b03163b151590565b600a5460ff16156200020c5760405162461bcd60e51b815260206004820152601060248201526f14185d5cd8589b194e881c185d5cd95960821b604482015260640162000203565b6200064a848484846200079560201b62000d651760201c565b6001811115620006c35760405162461bcd60e51b815260206004820152603560248201527f455243373231456e756d657261626c653a20636f6e736563757469766520747260448201527f616e7366657273206e6f7420737570706f727465640000000000000000000000606482015260840162000203565b816001600160a01b03851662000722576200071c81600880546000838152600960205260408120829055600182018355919091527ff3f7a9fe364faab93b216da50a3214154f22a0a2b415b23a84c8169e8b636ee30155565b62000748565b836001600160a01b0316856001600160a01b031614620007485762000748858262000824565b6001600160a01b03841662000768576200076281620008d1565b6200078e565b846001600160a01b0316846001600160a01b0316146200078e576200078e84826200098b565b5050505050565b6001811115620005d4576001600160a01b03841615620007df576001600160a01b03841660009081526003602052604081208054839290620007d990849062000cac565b90915550505b6001600160a01b03831615620005d4576001600160a01b038316600090815260036020526040812080548392906200081990849062000cc8565b909155505050505050565b600060016200083e84620009dc60201b620008da1760201c565b6200084a919062000cac565b6000838152600760205260409020549091508082146200089e576001600160a01b03841660009081526006602090815260408083208584528252808320548484528184208190558352600790915290208190555b5060009182526007602090815260408084208490556001600160a01b039094168352600681528383209183525290812055565b600854600090620008e59060019062000cac565b6000838152600960205260408120546008805493945090928490811062000910576200091062000cde565b90600052602060002001549050806008838154811062000934576200093462000cde565b60009182526020808320909101929092558281526009909152604080822084905585825281205560088054806200096f576200096f62000cf4565b6001900381819060005260206000200160009055905550505050565b6000620009a383620009dc60201b620008da1760201c565b6001600160a01b039093166000908152600660209081526040808320868452825280832085905593825260079052919091209190915550565b60006001600160a01b03821662000a485760405162461bcd60e51b815260206004820152602960248201527f4552433732313a2061646472657373207a65726f206973206e6f7420612076616044820152683634b21037bbb732b960b91b606482015260840162000203565b506001600160a01b031660009081526003602052604090205490565b634e487b7160e01b600052604160045260246000fd5b600181811c9082168062000a8f57607f821691505b60208210810362000ab057634e487b7160e01b600052602260045260246000fd5b50919050565b601f821115620001a157600081815260208120601f850160051c8101602086101562000adf5750805b601f850160051c820191505b8181101562000b005782815560010162000aeb565b505050505050565b81516001600160401b0381111562000b245762000b2462000a64565b62000b3c8162000b35845462000a7a565b8462000ab6565b602080601f83116001811462000b74576000841562000b5b5750858301515b600019600386901b1c1916600185901b17855562000b00565b600085815260208120601f198616915b8281101562000ba55788860151825594840194600190910190840162000b84565b508582101562000bc45787850151600019600388901b60f8161c191681555b5050505050600190811b01905550565b634e487b7160e01b600052601160045260246000fd5b60006001820162000bff5762000bff62000bd4565b5060010190565b600060018060a01b038087168352602081871681850152856040850152608060608501528451915081608085015260005b8281101562000c555785810182015185820160a00152810162000c37565b5050600060a0828501015260a0601f19601f83011684010191505095945050505050565b60006020828403121562000c8c57600080fd5b81516001600160e01b03198116811462000ca557600080fd5b9392505050565b8181038181111562000cc25762000cc262000bd4565b92915050565b8082018082111562000cc25762000cc262000bd4565b634e487b7160e01b600052603260045260246000fd5b634e487b7160e01b600052603160045260246000fd5b6121958062000d1a6000396000f3fe608060405234801561001057600080fd5b50600436106101ae5760003560e01c806370a08231116100ee578063a22cb46511610097578063c668286211610071578063c668286214610349578063c87b56dd14610385578063e985e9c514610398578063f2fde38b146103d457600080fd5b8063a22cb46514610310578063b88d4fde14610323578063ba4a0dfb1461033657600080fd5b80638da5cb5b116100c85780638da5cb5b146102df57806395d89b41146102f5578063a1448194146102fd57600080fd5b806370a08231146102bc578063715018a6146102cf5780638456cb59146102d757600080fd5b80632f745c591161015b5780634f6ccce7116101355780634f6ccce7146102835780635c975abb146102965780636352211e146102a15780636c0360eb146102b457600080fd5b80632f745c59146102555780633f4ba83a1461026857806342842e0e1461027057600080fd5b8063095ea7b31161018c578063095ea7b31461021b57806318160ddd1461023057806323b872dd1461024257600080fd5b806301ffc9a7146101b357806306fdde03146101db578063081812fc146101f0575b600080fd5b6101c66101c1366004611d70565b6103e7565b60405190151581526020015b60405180910390f35b6101e36103f8565b6040516101d29190611ddd565b6102036101fe366004611df0565b61048a565b6040516001600160a01b0390911681526020016101d2565b61022e610229366004611e25565b6104b1565b005b6008545b6040519081526020016101d2565b61022e610250366004611e4f565b6105e7565b610234610263366004611e25565b61066e565b61022e610716565b61022e61027e366004611e4f565b610728565b610234610291366004611df0565b610743565b600a5460ff166101c6565b6102036102af366004611df0565b6107e7565b6101e361084c565b6102346102ca366004611e8b565b6108da565b61022e610974565b61022e610986565b600a5461010090046001600160a01b0316610203565b6101e3610996565b61022e61030b366004611e25565b6109a5565b61022e61031e366004611ea6565b6109f0565b61022e610331366004611ef8565b6109ff565b61022e610344366004611e4f565b610663565b6101e36040518060400160405280600581526020017f2e6a736f6e00000000000000000000000000000000000000000000000000000081525081565b6101e3610393366004611df0565b610a8d565b6101c66103a6366004611fd4565b6001600160a01b03918216600090815260056020908152604080832093909416825291909152205460ff1690565b61022e6103e2366004611e8b565b610b71565b60006103f282610ded565b92915050565b60606000805461040790612007565b80601f016020809104026020016040519081016040528092919081815260200182805461043390612007565b80156104805780601f1061045557610100808354040283529160200191610480565b820191906000526020600020905b81548152906001019060200180831161046357829003601f168201915b5050505050905090565b600061049582610e43565b506000908152600460205260409020546001600160a01b031690565b60006104bc826107e7565b9050806001600160a01b0316836001600160a01b03160361054a5760405162461bcd60e51b815260206004820152602160248201527f4552433732313a20617070726f76616c20746f2063757272656e74206f776e6560448201527f720000000000000000000000000000000000000000000000000000000000000060648201526084015b60405180910390fd5b336001600160a01b0382161480610566575061056681336103a6565b6105d85760405162461bcd60e51b815260206004820152603d60248201527f4552433732313a20617070726f76652063616c6c6572206973206e6f7420746f60448201527f6b656e206f776e6572206f7220617070726f76656420666f7220616c6c0000006064820152608401610541565b6105e28383610ea7565b505050565b6105f13382610f22565b6106635760405162461bcd60e51b815260206004820152602d60248201527f4552433732313a2063616c6c6572206973206e6f7420746f6b656e206f776e6560448201527f72206f7220617070726f766564000000000000000000000000000000000000006064820152608401610541565b6105e2838383610fa1565b6000610679836108da565b82106106ed5760405162461bcd60e51b815260206004820152602b60248201527f455243373231456e756d657261626c653a206f776e657220696e646578206f7560448201527f74206f6620626f756e64730000000000000000000000000000000000000000006064820152608401610541565b506001600160a01b03919091166000908152600660209081526040808320938352929052205490565b61071e6111e4565b610726611244565b565b6105e2838383604051806020016040528060008152506109ff565b600061074e60085490565b82106107c25760405162461bcd60e51b815260206004820152602c60248201527f455243373231456e756d657261626c653a20676c6f62616c20696e646578206f60448201527f7574206f6620626f756e647300000000000000000000000000000000000000006064820152608401610541565b600882815481106107d5576107d5612041565b90600052602060002001549050919050565b6000818152600260205260408120546001600160a01b0316806103f25760405162461bcd60e51b815260206004820152601860248201527f4552433732313a20696e76616c696420746f6b656e20494400000000000000006044820152606401610541565b600c805461085990612007565b80601f016020809104026020016040519081016040528092919081815260200182805461088590612007565b80156108d25780601f106108a7576101008083540402835291602001916108d2565b820191906000526020600020905b8154815290600101906020018083116108b557829003601f168201915b505050505081565b60006001600160a01b0382166109585760405162461bcd60e51b815260206004820152602960248201527f4552433732313a2061646472657373207a65726f206973206e6f74206120766160448201527f6c6964206f776e657200000000000000000000000000000000000000000000006064820152608401610541565b506001600160a01b031660009081526003602052604090205490565b61097c6111e4565b6107266000611296565b61098e6111e4565b610726611307565b60606001805461040790612007565b6109ad6111e4565b60005b818110156105e2576109c6600b80546001019055565b60006109d1600b5490565b90506109dd8482611344565b50806109e88161206d565b9150506109b0565b6109fb33838361135e565b5050565b610a093383610f22565b610a7b5760405162461bcd60e51b815260206004820152602d60248201527f4552433732313a2063616c6c6572206973206e6f7420746f6b656e206f776e6560448201527f72206f7220617070726f766564000000000000000000000000000000000000006064820152608401610541565b610a878484848461142c565b50505050565b6000818152600260205260409020546060906001600160a01b0316610ade576040517fc9713fb500000000000000000000000000000000000000000000000000000000815260040160405180910390fd5b6000610ae86114b5565b90506000815111610b085760405180602001604052806000815250610b6a565b80610b12846114c4565b6040518060400160405280600581526020017f2e6a736f6e000000000000000000000000000000000000000000000000000000815250604051602001610b5a93929190612087565b6040516020818303038152906040525b9392505050565b610b796111e4565b6001600160a01b038116610bf55760405162461bcd60e51b815260206004820152602660248201527f4f776e61626c653a206e6577206f776e657220697320746865207a65726f206160448201527f64647265737300000000000000000000000000000000000000000000000000006064820152608401610541565b610bfe81611296565b50565b80546001019055565b5490565b6001600160a01b03163b151590565b610c2984848484610d65565b6001811115610ca05760405162461bcd60e51b815260206004820152603560248201527f455243373231456e756d657261626c653a20636f6e736563757469766520747260448201527f616e7366657273206e6f7420737570706f7274656400000000000000000000006064820152608401610541565b816001600160a01b038516610cfc57610cf781600880546000838152600960205260408120829055600182018355919091527ff3f7a9fe364faab93b216da50a3214154f22a0a2b415b23a84c8169e8b636ee30155565b610d1f565b836001600160a01b0316856001600160a01b031614610d1f57610d1f8582611564565b6001600160a01b038416610d3b57610d3681611601565b610d5e565b846001600160a01b0316846001600160a01b031614610d5e57610d5e84826116b0565b5050505050565b6001811115610a87576001600160a01b03841615610dab576001600160a01b03841660009081526003602052604081208054839290610da59084906120ca565b90915550505b6001600160a01b03831615610a87576001600160a01b03831660009081526003602052604081208054839290610de29084906120dd565b909155505050505050565b60007fffffffff0000000000000000000000000000000000000000000000000000000082167f780e9d630000000000000000000000000000000000000000000000000000000014806103f257506103f2826116f4565b6000818152600260205260409020546001600160a01b0316610bfe5760405162461bcd60e51b815260206004820152601860248201527f4552433732313a20696e76616c696420746f6b656e20494400000000000000006044820152606401610541565b6000818152600460205260409020805473ffffffffffffffffffffffffffffffffffffffff19166001600160a01b0384169081179091558190610ee9826107e7565b6001600160a01b03167f8c5be1e5ebec7d5bd14f71427d1e84f3dd0314c0f7b2291e5b200ac8c7c3b92560405160405180910390a45050565b600080610f2e836107e7565b9050806001600160a01b0316846001600160a01b03161480610f7557506001600160a01b0380821660009081526005602090815260408083209388168352929052205460ff165b80610f995750836001600160a01b0316610f8e8461048a565b6001600160a01b0316145b949350505050565b826001600160a01b0316610fb4826107e7565b6001600160a01b0316146110305760405162461bcd60e51b815260206004820152602560248201527f4552433732313a207472616e736665722066726f6d20696e636f72726563742060448201527f6f776e65720000000000000000000000000000000000000000000000000000006064820152608401610541565b6001600160a01b0382166110ab5760405162461bcd60e51b8152602060048201526024808201527f4552433732313a207472616e7366657220746f20746865207a65726f2061646460448201527f72657373000000000000000000000000000000000000000000000000000000006064820152608401610541565b6110b883838360016117d7565b826001600160a01b03166110cb826107e7565b6001600160a01b0316146111475760405162461bcd60e51b815260206004820152602560248201527f4552433732313a207472616e736665722066726f6d20696e636f72726563742060448201527f6f776e65720000000000000000000000000000000000000000000000000000006064820152608401610541565b6000818152600460209081526040808320805473ffffffffffffffffffffffffffffffffffffffff199081169091556001600160a01b0387811680865260038552838620805460001901905590871680865283862080546001019055868652600290945282852080549092168417909155905184937fddf252ad1be2c89b69c2b068fc378daa952ba7f163c4a11628f55a4df523b3ef91a4505050565b600a546001600160a01b036101009091041633146107265760405162461bcd60e51b815260206004820181905260248201527f4f776e61626c653a2063616c6c6572206973206e6f7420746865206f776e65726044820152606401610541565b61124c6117eb565b600a805460ff191690557f5db9ee0a495bf2e6ff9c91a7834c1ba4fdd244a5e8aa4e537bd38aeae4b073aa335b6040516001600160a01b03909116815260200160405180910390a1565b600a80546001600160a01b038381166101008181027fffffffffffffffffffffff0000000000000000000000000000000000000000ff85161790945560405193909204169182907f8be0079c531659141344cd1fd0a4f28419497f9722a3daafe3b4186f6b6457e090600090a35050565b61130f61183d565b600a805460ff191660011790557f62e78cea01bee320cd4e420270b5ea74000d11b0c9f74754ebdbfc544b05a2586112793390565b6109fb828260405180602001604052806000815250611890565b816001600160a01b0316836001600160a01b0316036113bf5760405162461bcd60e51b815260206004820152601960248201527f4552433732313a20617070726f766520746f2063616c6c6572000000000000006044820152606401610541565b6001600160a01b03838116600081815260056020908152604080832094871680845294825291829020805460ff191686151590811790915591519182527f17307eab39ab6107e8899845ad3d59bd9653f200f220920489ca2b5937696c31910160405180910390a3505050565b611437848484610fa1565b61144384848484611919565b610a875760405162461bcd60e51b815260206004820152603260248201527f4552433732313a207472616e7366657220746f206e6f6e20455243373231526560448201527f63656976657220696d706c656d656e74657200000000000000000000000000006064820152608401610541565b6060600c805461040790612007565b606060006114d183611aba565b600101905060008167ffffffffffffffff8111156114f1576114f1611ee2565b6040519080825280601f01601f19166020018201604052801561151b576020820181803683370190505b5090508181016020015b600019017f3031323334353637383961626364656600000000000000000000000000000000600a86061a8153600a850494508461152557509392505050565b60006001611571846108da565b61157b91906120ca565b6000838152600760205260409020549091508082146115ce576001600160a01b03841660009081526006602090815260408083208584528252808320548484528184208190558352600790915290208190555b5060009182526007602090815260408084208490556001600160a01b039094168352600681528383209183525290812055565b600854600090611613906001906120ca565b6000838152600960205260408120546008805493945090928490811061163b5761163b612041565b90600052602060002001549050806008838154811061165c5761165c612041565b6000918252602080832090910192909255828152600990915260408082208490558582528120556008805480611694576116946120f0565b6001900381819060005260206000200160009055905550505050565b60006116bb836108da565b6001600160a01b039093166000908152600660209081526040808320868452825280832085905593825260079052919091209190915550565b60007fffffffff0000000000000000000000000000000000000000000000000000000082167f80ac58cd00000000000000000000000000000000000000000000000000000000148061178757507fffffffff0000000000000000000000000000000000000000000000000000000082167f5b5e139f00000000000000000000000000000000000000000000000000000000145b806103f257507f01ffc9a7000000000000000000000000000000000000000000000000000000007fffffffff000000000000000000000000000000000000000000000000000000008316146103f2565b6117df61183d565b610a8784848484610c1d565b600a5460ff166107265760405162461bcd60e51b815260206004820152601460248201527f5061757361626c653a206e6f74207061757365640000000000000000000000006044820152606401610541565b600a5460ff16156107265760405162461bcd60e51b815260206004820152601060248201527f5061757361626c653a20706175736564000000000000000000000000000000006044820152606401610541565b61189a8383611b9c565b6118a76000848484611919565b6105e25760405162461bcd60e51b815260206004820152603260248201527f4552433732313a207472616e7366657220746f206e6f6e20455243373231526560448201527f63656976657220696d706c656d656e74657200000000000000000000000000006064820152608401610541565b60006001600160a01b0384163b15611aaf576040517f150b7a020000000000000000000000000000000000000000000000000000000081526001600160a01b0385169063150b7a0290611976903390899088908890600401612106565b6020604051808303816000875af19250505080156119b1575060408051601f3d908101601f191682019092526119ae91810190612142565b60015b611a64573d8080156119df576040519150601f19603f3d011682016040523d82523d6000602084013e6119e4565b606091505b508051600003611a5c5760405162461bcd60e51b815260206004820152603260248201527f4552433732313a207472616e7366657220746f206e6f6e20455243373231526560448201527f63656976657220696d706c656d656e74657200000000000000000000000000006064820152608401610541565b805181602001fd5b7fffffffff00000000000000000000000000000000000000000000000000000000167f150b7a0200000000000000000000000000000000000000000000000000000000149050610f99565b506001949350505050565b6000807a184f03e93ff9f4daa797ed6e38ed64bf6a1f0100000000000000008310611b03577a184f03e93ff9f4daa797ed6e38ed64bf6a1f010000000000000000830492506040015b6d04ee2d6d415b85acef81000000008310611b2f576d04ee2d6d415b85acef8100000000830492506020015b662386f26fc100008310611b4d57662386f26fc10000830492506010015b6305f5e1008310611b65576305f5e100830492506008015b6127108310611b7957612710830492506004015b60648310611b8b576064830492506002015b600a83106103f25760010192915050565b6001600160a01b038216611bf25760405162461bcd60e51b815260206004820181905260248201527f4552433732313a206d696e7420746f20746865207a65726f20616464726573736044820152606401610541565b6000818152600260205260409020546001600160a01b031615611c575760405162461bcd60e51b815260206004820152601c60248201527f4552433732313a20746f6b656e20616c7265616479206d696e746564000000006044820152606401610541565b611c656000838360016117d7565b6000818152600260205260409020546001600160a01b031615611cca5760405162461bcd60e51b815260206004820152601c60248201527f4552433732313a20746f6b656e20616c7265616479206d696e746564000000006044820152606401610541565b6001600160a01b0382166000818152600360209081526040808320805460010190558483526002909152808220805473ffffffffffffffffffffffffffffffffffffffff19168417905551839291907fddf252ad1be2c89b69c2b068fc378daa952ba7f163c4a11628f55a4df523b3ef908290a45050565b7fffffffff0000000000000000000000000000000000000000000000000000000081168114610bfe57600080fd5b600060208284031215611d8257600080fd5b8135610b6a81611d42565b60005b83811015611da8578181015183820152602001611d90565b50506000910152565b60008151808452611dc9816020860160208601611d8d565b601f01601f19169290920160200192915050565b602081526000610b6a6020830184611db1565b600060208284031215611e0257600080fd5b5035919050565b80356001600160a01b0381168114611e2057600080fd5b919050565b60008060408385031215611e3857600080fd5b611e4183611e09565b946020939093013593505050565b600080600060608486031215611e6457600080fd5b611e6d84611e09565b9250611e7b60208501611e09565b9150604084013590509250925092565b600060208284031215611e9d57600080fd5b610b6a82611e09565b60008060408385031215611eb957600080fd5b611ec283611e09565b915060208301358015158114611ed757600080fd5b809150509250929050565b634e487b7160e01b600052604160045260246000fd5b60008060008060808587031215611f0e57600080fd5b611f1785611e09565b9350611f2560208601611e09565b925060408501359150606085013567ffffffffffffffff80821115611f4957600080fd5b818701915087601f830112611f5d57600080fd5b813581811115611f6f57611f6f611ee2565b604051601f8201601f19908116603f01168101908382118183101715611f9757611f97611ee2565b816040528281528a6020848701011115611fb057600080fd5b82602086016020830137600060208483010152809550505050505092959194509250565b60008060408385031215611fe757600080fd5b611ff083611e09565b9150611ffe60208401611e09565b90509250929050565b600181811c9082168061201b57607f821691505b60208210810361203b57634e487b7160e01b600052602260045260246000fd5b50919050565b634e487b7160e01b600052603260045260246000fd5b634e487b7160e01b600052601160045260246000fd5b6000600019820361208057612080612057565b5060010190565b60008451612099818460208901611d8d565b8451908301906120ad818360208901611d8d565b84519101906120c0818360208801611d8d565b0195945050505050565b818103818111156103f2576103f2612057565b808201808211156103f2576103f2612057565b634e487b7160e01b600052603160045260246000fd5b60006001600160a01b038087168352808616602084015250836040830152608060608301526121386080830184611db1565b9695505050505050565b60006020828403121561215457600080fd5b8151610b6a81611d4256fea2646970667358221220bdd5f0b2af2abcc21e8387708822961d67c488302fb221b7820b1b1bfad2781e64736f6c634300081100334552433732313a207472616e7366657220746f206e6f6e20455243373231526568747470733a2f2f676174657761792e70696e6174612e636c6f75642f697066732f516d636665314e7278316f505277544258386b6159535043657861613278726a6f6638367839754b3739336757322f",
  "linkReferences": {},
  "deployedLinkReferences": {}
}