{
  "_format": "hh-sol-artifact-1",
  "contractName": "NFTStaking",
  "sourceName": "contracts/NFTStaking.sol",
  "abi": [
    {
      "inputs": [
        {
          "internalType": "contract ERC721Enumerable",
          "name": "_nft",
          "type": "address"
        }
      ],
      "stateMutability": "nonpayable",
      "type": "constructor"
    },
    {
      "anonymous": false,
      "inputs": [
        {
          "indexed": false,
          "internalType": "address",
          "name": "owner",
          "type": "address"
        },
        {
          "indexed": false,
          "internalType": "uint256",
          "name": "tokenId",
          "type": "uint256"
        },
        {
          "indexed": false,
          "internalType": "uint256",
          "name": "value",
          "type": "uint256"
        }
      ],
      "name": "NFTStaked",
      "type": "event"
    },
    {
      "anonymous": false,
      "inputs": [
        {
          "indexed": false,
          "internalType": "address",
          "name": "owner",
          "type": "address"
        },
        {
          "indexed": false,
          "internalType": "uint256",
          "name": "tokenId",
          "type": "uint256"
        },
        {
          "indexed": false,
          "internalType": "uint256",
          "name": "value",
          "type": "uint256"
        }
      ],
      "name": "NFTUnstaked",
      "type": "event"
    },
    {
      "inputs": [
        {
          "internalType": "address",
          "name": "account",
          "type": "address"
        }
      ],
      "name": "balanceOf",
      "outputs": [
        {
          "internalType": "uint256",
          "name": "",
          "type": "uint256"
        }
      ],
      "stateMutability": "view",
      "type": "function"
    },
    {
      "inputs": [
        {
          "internalType": "address",
          "name": "",
          "type": "address"
        },
        {
          "internalType": "address",
          "name": "from",
          "type": "address"
        },
        {
          "internalType": "uint256",
          "name": "",
          "type": "uint256"
        },
        {
          "internalType": "bytes",
          "name": "",
          "type": "bytes"
        }
      ],
      "name": "onERC721Received",
      "outputs": [
        {
          "internalType": "bytes4",
          "name": "",
          "type": "bytes4"
        }
      ],
      "stateMutability": "pure",
      "type": "function"
    },
    {
      "inputs": [
        {
          "internalType": "uint256",
          "name": "tokenId",
          "type": "uint256"
        },
        {
          "internalType": "uint24",
          "name": "time",
          "type": "uint24"
        }
      ],
      "name": "stake",
      "outputs": [],
      "stateMutability": "nonpayable",
      "type": "function"
    },
    {
      "inputs": [
        {
          "internalType": "address",
          "name": "",
          "type": "address"
        }
      ],
      "name": "stakingTime",
      "outputs": [
        {
          "internalType": "uint256",
          "name": "",
          "type": "uint256"
        }
      ],
      "stateMutability": "view",
      "type": "function"
    },
    {
      "inputs": [
        {
          "internalType": "address",
          "name": "account",
          "type": "address"
        }
      ],
      "name": "tokensOfOwner",
      "outputs": [
        {
          "internalType": "uint256[]",
          "name": "ownerTokens",
          "type": "uint256[]"
        }
      ],
      "stateMutability": "view",
      "type": "function"
    },
    {
      "inputs": [],
      "name": "totalStaked",
      "outputs": [
        {
          "internalType": "uint256",
          "name": "",
          "type": "uint256"
        }
      ],
      "stateMutability": "view",
      "type": "function"
    },
    {
      "inputs": [
        {
          "internalType": "address",
          "name": "account",
          "type": "address"
        },
        {
          "internalType": "uint256",
          "name": "tokenId",
          "type": "uint256"
        }
      ],
      "name": "unstake",
      "outputs": [],
      "stateMutability": "nonpayable",
      "type": "function"
    },
    {
      "inputs": [
        {
          "internalType": "uint256",
          "name": "",
          "type": "uint256"
        }
      ],
      "name": "vault",
      "outputs": [
        {
          "internalType": "address",
          "name": "owner",
          "type": "address"
        },
        {
          "internalType": "uint24",
          "name": "tokenId",
          "type": "uint24"
        },
        {
          "internalType": "uint48",
          "name": "timestamp",
          "type": "uint48"
        },
        {
          "internalType": "uint24",
          "name": "time",
          "type": "uint24"
        }
      ],
      "stateMutability": "view",
      "type": "function"
    }
  ],
  "bytecode": "0x60806040526201518060005534801561001757600080fd5b50604051610e40380380610e408339810160408190526100369161005b565b600380546001600160a01b0319166001600160a01b039290921691909117905561008b565b60006020828403121561006d57600080fd5b81516001600160a01b038116811461008457600080fd5b9392505050565b610da68061009a6000396000f3fe608060405234801561001057600080fd5b50600436106100885760003560e01c8063817b1cd21161005b578063817b1cd21461012c57806381a36fb6146101355780638462151c146101d7578063c2a672e0146101f757600080fd5b8063150b7a021461008d5780631824c4de146100d6578063583d42fd146100eb57806370a0823114610119575b600080fd5b6100a061009b366004610b13565b61020a565b6040517fffffffff0000000000000000000000000000000000000000000000000000000090911681526020015b60405180910390f35b6100e96100e4366004610bb2565b6102b9565b005b61010b6100f9366004610bea565b60026020526000908152604090205481565b6040519081526020016100cd565b61010b610127366004610bea565b6105d5565b61010b60015481565b61019b610143366004610c0e565b6004602052600090815260409020546001600160a01b0381169062ffffff600160a01b820481169165ffffffffffff7701000000000000000000000000000000000000000000000082041691600160e81b9091041684565b604080516001600160a01b03909516855262ffffff938416602086015265ffffffffffff909216918401919091521660608201526080016100cd565b6101ea6101e5366004610bea565b6106ab565b6040516100cd9190610c27565b6100e9610205366004610c6b565b61089e565b60006001600160a01b0385161561028e5760405162461bcd60e51b815260206004820152602260248201527f43616e6e6f742073656e64206e66747320746f205661756c742064697265637460448201527f6c7900000000000000000000000000000000000000000000000000000000000060648201526084015b60405180910390fd5b507f150b7a020000000000000000000000000000000000000000000000000000000095945050505050565b6003546040517f6352211e0000000000000000000000000000000000000000000000000000000081526004810184905233916001600160a01b031690636352211e90602401602060405180830381865afa15801561031b573d6000803e3d6000fd5b505050506040513d601f19601f8201168201806040525081019061033f9190610c97565b6001600160a01b0316146103955760405162461bcd60e51b815260206004820152600e60248201527f6e6f7420796f757220746f6b656e0000000000000000000000000000000000006044820152606401610285565b600082815260046020526040902054600160a01b900462ffffff16156103fd5760405162461bcd60e51b815260206004820152600e60248201527f616c7265616479207374616b65640000000000000000000000000000000000006044820152606401610285565b6003546040517f23b872dd000000000000000000000000000000000000000000000000000000008152336004820152306024820152604481018490526001600160a01b03909116906323b872dd90606401600060405180830381600087803b15801561046857600080fd5b505af115801561047c573d6000803e3d6000fd5b50506040805133815260208101869052428183015290517f36b3725f1783bad4ff05b7f4c077c3aa68eeb23a4d054ba189db4d01ac278d399350908190036060019150a1600180549060006104d083610cca565b90915550506040805160808101825233815262ffffff808516602080840191825265ffffffffffff428116858701908152968416606086019081526000988952600490925294909620925183549151955196518316600160e81b027cffffffffffffffffffffffffffffffffffffffffffffffffffffffffff9790951677010000000000000000000000000000000000000000000000029690961676ffffffffffffffffffffffffffffffffffffffffffffff95909216600160a01b027fffffffffffffffffff00000000000000000000000000000000000000000000009091166001600160a01b039690961695909517949094179290921692909217919091179055565b600080600090506000600360009054906101000a90046001600160a01b03166001600160a01b03166318160ddd6040518163ffffffff1660e01b8152600401602060405180830381865afa158015610631573d6000803e3d6000fd5b505050506040513d601f19601f820116820180604052508101906106559190610ce4565b905060015b8181116106a2576000818152600460205260409020546001600160a01b038087169116036106905761068d600184610cfd565b92505b8061069a81610cca565b91505061065a565b50909392505050565b60606000600360009054906101000a90046001600160a01b03166001600160a01b03166318160ddd6040518163ffffffff1660e01b8152600401602060405180830381865afa158015610702573d6000803e3d6000fd5b505050506040513d601f19601f820116820180604052508101906107269190610ce4565b905060008167ffffffffffffffff81111561074357610743610d16565b60405190808252806020026020018201604052801561076c578160200160208202803683370190505b509050600060015b8381116107f8576000818152600460205260409020546001600160a01b038088169116036107e6576000818152600460205260409020548351600160a01b90910462ffffff16908490849081106107cd576107cd610d2c565b60209081029190910101526107e3600183610cfd565b91505b806107f081610cca565b915050610774565b5060008167ffffffffffffffff81111561081457610814610d16565b60405190808252806020026020018201604052801561083d578160200160208202803683370190505b50905060005b828110156108945783818151811061085d5761085d610d2c565b602002602001015182828151811061087757610877610d2c565b60209081029190910101528061088c81610cca565b915050610843565b5095945050505050565b600081815260046020908152604091829020825160808101845290546001600160a01b03811680835262ffffff600160a01b830481169484019490945265ffffffffffff7701000000000000000000000000000000000000000000000083041694830194909452600160e81b900490911660608201529033146109635760405162461bcd60e51b815260206004820152600c60248201527f6e6f7420616e206f776e657200000000000000000000000000000000000000006044820152606401610285565b42816040015165ffffffffffff16600054836060015162ffffff166109889190610d42565b6109929190610cfd565b10610a055760405162461bcd60e51b815260206004820152602360248201527f596f757220556e7374616b696e672054696d65206973204e6f7420436f6d706c60448201527f65746500000000000000000000000000000000000000000000000000000000006064820152608401610285565b60008281526004602052604081208190556001805491610a2483610d59565b9091555050604080516001600160a01b038516815260208101849052428183015290517fc486b9458a8637650d84d262414833a5a457bc91ae86b7da110386c8c3fa255b9181900360600190a16003546040517f23b872dd0000000000000000000000000000000000000000000000000000000081523060048201526001600160a01b03858116602483015260448201859052909116906323b872dd90606401600060405180830381600087803b158015610ade57600080fd5b505af1158015610af2573d6000803e3d6000fd5b50505050505050565b6001600160a01b0381168114610b1057600080fd5b50565b600080600080600060808688031215610b2b57600080fd5b8535610b3681610afb565b94506020860135610b4681610afb565b935060408601359250606086013567ffffffffffffffff80821115610b6a57600080fd5b818801915088601f830112610b7e57600080fd5b813581811115610b8d57600080fd5b896020828501011115610b9f57600080fd5b9699959850939650602001949392505050565b60008060408385031215610bc557600080fd5b82359150602083013562ffffff81168114610bdf57600080fd5b809150509250929050565b600060208284031215610bfc57600080fd5b8135610c0781610afb565b9392505050565b600060208284031215610c2057600080fd5b5035919050565b6020808252825182820181905260009190848201906040850190845b81811015610c5f57835183529284019291840191600101610c43565b50909695505050505050565b60008060408385031215610c7e57600080fd5b8235610c8981610afb565b946020939093013593505050565b600060208284031215610ca957600080fd5b8151610c0781610afb565b634e487b7160e01b600052601160045260246000fd5b60006000198203610cdd57610cdd610cb4565b5060010190565b600060208284031215610cf657600080fd5b5051919050565b80820180821115610d1057610d10610cb4565b92915050565b634e487b7160e01b600052604160045260246000fd5b634e487b7160e01b600052603260045260246000fd5b8082028115828204841417610d1057610d10610cb4565b600081610d6857610d68610cb4565b50600019019056fea2646970667358221220f28b09fe7eb706ecb7116e0f8d6a0d61e486da41f841927063beef8be827d62964736f6c63430008110033",
  "linkReferences": {},
  "deployedLinkReferences": {}
}